S02500005B6C77746F6F6C7320342E32305D20627974655F73696576655F363830392E61736D36
S1138000327F8EA0DCBDA197B600008A02B70000C3
S1138010860AA7E48E0007CE80BECC0101A7C0303B
S11380201F26FA8E1FF827171F021F011F8BCEA0D1
S1138030BD34011F8A363F118380C526F63501CE33
S11380400000CC00038E80BE6D80260EC300028C1F
S1138050A0BC23F46AE426BC2020318B108CA0BD84
S1138060220A6F3F31AB108CA0BD23F63341C3000D
S1138070028CA0BC23D26AE4269AB600008A40B7D8
S113808000008EA0CCBDA1971F30BDA1E1860ABD22
S1138090A17D8EA165BDA197860ABDA1D4860ABD26
S11380A0A17D8EA0BDBDA197FC0004BDA1E1FC0093
S11180B006BDA1E1860ABDA17D32617EA194C8
S106A0BD436C6F7E
S113A0C0636B20636F756E743A2024005072696D5F
S113A0D0657320666F756E643A2024000A425954F1
S113A0E0452053696576652042656E63686D6172CB
S113A0F06B20284C616E67756167653A203638308D
S113A100392041534D290A4F726967696E616C6C3D
S113A11079207075626C697368656420696E204289
S113A120595445206D6167617A696E652053657085
S113A13074656D62657220313938310A36383039C8
S113A14020417373656D626C7920706F7274206244
S113A15079204B6576696E205068696C6C69707300
S113A1606F6E0A0A004E756D626572206F66206913
S113A1707465726174696F6E733A20240034061F2B
S113A1808986033F3586341086048EA1933FB6A199
S113A1909335900086003F3412A6802705BDA17D2B
S113A1A020F735923402840F810A25048B3720026C
S113A1B08B30BDA17D3582BDA1868D2E81412404C5
S113A1C0803020028037398DEE4848484834028D6B
S113A1D0E6AAE0393402444444448DC835028DC4AF
S113A1E0398DF11E898DED1E893981612506817AAB
S108A1F0220280203969
S5030021DB
S9030000FC
