S02500005B6C77746F6F6C7320342E31375D20627974655F73696576655F363830392E61736D30
S1138000327FCCA0D8BDFE887FFF087CFF08860A9B
S1138010A7E48E0007CE80BACC0101A7C0301F268A
S1138020FA8E1FF827171F021F011F8BCEA0B93429
S1138030011F8A363F118380C126F63501CE000028
S1138040CC00038E80BA6D80260EC300028CA0B8CB
S113805023F46AE426BC2020318B108CA0B9220AB8
S11380606F3F31AB108CA0B923F63341C300028CAF
S1138070A0B823D26AE4269A7CFF08CCA0C8BDFE2F
S1138080881F30BDFEA0CCA15FBDFE88CCA161BD20
S1138090FE88C60ABDFEA9CCA15FBDFE88CCA0B9EE
S11380A0BDFE88FCFF04BDFEA0FCFF06BDFEA0CC07
S10D80B0A15FBDFE8832617EFDB8B9
S10AA0B9436C6F636B20632D
S113A0C06F756E743A2024005072696D6573206652
S113A0D06F756E643A2024000A425954452053692E
S113A0E06576652042656E63686D61726B20284CED
S113A0F0616E67756167653A20363830392041539F
S113A1004D290A4F726967696E616C6C79207075AC
S113A110626C697368656420696E204259544520F5
S113A1206D6167617A696E652053657074656D62EF
S113A130657220313938310A363830392041737329
S113A140656D626C7920706F7274206279204B6542
S113A15076696E205068696C6C6970736F6E0A0A58
S113A160004E756D626572206F6620697465726158
S10CA17074696F6E733A20240037
S5030019E3
S90380007C
