S01E00005B6C77746F6F6C7320342E32305D2073696D5F626F6F742E61736D46
S113FE007F000010CEFE008EFF0EBDFF8816008618
S113FE10CE00008E0000BDFED7815326F9BDFED76B
S113FE20813127068139274520EC308426E8862E47
S113FE30BDFEAFBDFFB830868003A7E2BDFFB8307A
S113FE40861F89BDFFB830861E891F02E6E05A2B43
S113FE500BBDFFB83086A7A0334120F2BDFFB8A781
S113FE60E21F10E8E45C4F1F01326120A9308427AF
S113FE70098EFF2EBDFF887EFE008EFF3EBDFF88EB
S113FE801F30BDFFD28EFF50BDFF88CC8000BDFF68
S113FE90D2860ABDFEAF7C0000BD80008EFF6CBD23
S113FEA0FF88B600008A80B7000020FE7EFE007D39
S113FEB0FFED2619810A2606860D8D02860A340274
S113FEC0B60003851027F93502B7000239B7FFEFF2
S113FED07FFFEE73FFEE39B60003850827F9B600FD
S113FEE00239810426068DEFA78435FF8103260697
S113FEF01F988DBB35FF810226088EFF68BDFF88E1
S113FF0035FF81012605BDFF8835FF7EFE9C0A2F43
S113FF102F2F20547572626F392053313920426F6C
S113FF206F746C6F61646572202F2F2F0A000A436F
S113FF306865636B73756D204641494C0A000A423B
S113FF40797465732072656365697665642024003D
S113FF500A436865636B73756D20504153530A4AB5
S113FF60535220746F202400424144000A526574A5
S113FF7075726E656420746F20626F6F746C6F614C
S113FF806465722E2E2E0A003412A6802705BDFE4B
S113FF90AF20F735923402840F810A25048B372071
S113FFA0028B30BDFEAF3582BDFED78D2E8141243C
S113FFB004803020028037398DEE484848483402A6
S113FFC08DE6AAE0393402444444448DC835028D98
S113FFD0C4398DF11E898DED1E8939816125068113
S109FFE07A2202802039A0
S106FFED0100000C
S113FFF0FE00FE00FE00FE00FE00FEE2FE00FE002B
S5030021DB
S9030000FC
