S02100005B6C77746F6F6C7320342E32355D20747572626F395F626F6F742E61736D22
S113FC0010CEFBFF7FFF008E00001F13CCFCF2BD63
S113FC10FD88BDFD4AC15326F9BDFD4AC130270AFE
S113FC20C1312725C139274120E8308426E4BDFCB1
S113FC30C0BDFCCDBDFD5C3085BDFD7A4A26F5BD59
S113FC40FCDFC620BDFD7A20C9308426C5BDFCC0BA
S113FC50BDFCCDBDFD5C3085E7A033414A26F4BD33
S113FC60FCDFC62EBDFD7A20A930842612BDFCC05F
S113FC70BDFCCDBDFCDFBDFD4AC10A26F92000CC88
S113FC80FD0FBDFD8830842709CCFD22BDFD887E93
S113FC90FC00CCFD27BDFD881F30BDFDA0CCFD3C84
S113FCA0BDFD881F20BDFDA0CCFD48BDFD88BDFD68
S113FCB088C601F7FF00ADA4C602F7FF007EFC0072
S113FCC03404BDFD5C3085C0031F9835843406BD03
S113FCD0FD5C30851F98BDFD5C30851F0235863480
S113FCE006BDFD5CE7E21F10E8E45C4F1F013261D2
S113FCF035860A0A3E20547572626F3920533139B1
S113FD0020426F6F746C6F616465720A3E2000203C
S113FD10646F6E65210A3E20436865636B73756D7D
S113FD2020004641494C00504153530A3E20546F31
S113FD3074616C2062797465732024000A3E204A41
S113FD40535220746F2024000A00F6FF03C50827CD
S113FD50F9F6FF02398D051F988D01398D0B58581E
S113FD60585834048D03EAE0398DDFC1392308C1C2
S113FD70462302C020C007C030393402B6FF0385D1
S113FD801027F9F7FF02358234141F01E680270E8D
S113FD90C10A2606C60D8DE2C60A8DDE20EE359414
S113FDA01E898D051E898D01393404545454548D93
S113FDB00535048D01393404C40FC10A2502CB076B
S109FDC0CB308DB6358442
S113FDF0FC00FC00FC00FC00FC00FC00FC00FC001F
S503001EDE
S9030000FC
