:10FE00007F000010CEFE008EFF0FBDFF8910210085
:10FE100086CE00008E0000BDFED8815326F9BDFEBF
:10FE2000D8813127068139274520EC308426E886A1
:10FE30002EBDFEB0BDFFB930868003A7E2BDFFB97D
:10FE400030861F89BDFFB930861E891F02E6E05A41
:10FE50002B0BBDFFB93086A7A0334120F2BDFFB9FF
:10FE6000A7E21F10E8E45C4F1F01326120A9308433
:10FE700027098EFF2FBDFF897EFE008EFF3FBDFF4D
:10FE8000891F30BDFFD38EFF51BDFF89CC8000BDDF
:10FE9000FFD3860ABDFEB07C0000BD80008EFF6DE2
:10FEA000BDFF89B600008A80B7000021FE7EFE00FB
:10FEB0007DFFED2619810A2606860D8D02860A34FD
:10FEC00002B60003851027F93502B7000239B7FFE3
:10FED000EF7FFFEE73FFEE39B60003850827F9B612
:10FEE000000239810426068DEFA78435FF810326A1
:10FEF000061F988DBB35FF810226088EFF69BDFF66
:10FF00008935FF81012605BDFF8935FF7EFE9D0AEB
:10FF10002F2F2F20547572626F39205331392042B0
:10FF20006F6F746C6F61646572202F2F2F0A000A47
:10FF3000436865636B73756D204641494C0A000A3E
:10FF400042797465732072656365697665642024FF
:10FF5000000A436865636B73756D20504153530A03
:10FF60004A535220746F202400424144000A5265D3
:10FF70007475726E656420746F20626F6F746C6F3D
:10FF8000616465722E2E2E0A003412A6802705BDEC
:10FF9000FEB020F735923402840F810A25048B3796
:10FFA00020028B30BDFEB03582BDFED88D2E814142
:10FFB0002404803020028037398DEE484848483488
:10FFC000028DE6AAE0393402444444448DC8350227
:10FFD0008DC4398DF11E898DED1E8939816125060B
:07FFE000817A220280203922
:03FFED0000000011
:10FFF000FE00FE00FE00FE00FE00FEE3FE00FE002E
:00000001FF