S02100005B6C77746F6F6C7320342E32355D20747572626F395F626F6F742E61736D22
S113FD0010CEFD007FFF008E00001F13CCFDF2BD5E
S113FD10FE88BDFE4AC15326F9BDFE4AC130270AFA
S113FD20C1312725C139274120E8308426E4BDFDAF
S113FD30C0BDFDCDBDFE5C3085BDFE7A4A26F5BD55
S113FD40FDDFC620BDFE7A20C9308426C5BDFDC0B6
S113FD50BDFDCDBDFE5C3085E7A033414A26F4BD30
S113FD60FDDFC62EBDFE7A20A930842612BDFDC05B
S113FD70BDFDCDBDFDDFBDFE4AC10A26F92000CC84
S113FD80FE0FBDFE8830842709CCFE22BDFE887E8E
S113FD90FD00CCFE27BDFE881F30BDFEA0CCFE3C7E
S113FDA0BDFE881F20BDFEA0CCFE48BDFE88BDFE62
S113FDB088C601F7FF00ADA4C602F7FF007EFD0070
S113FDC03404BDFE5C3085C0031F9835843406BD01
S113FDD0FE5C30851F98BDFE5C30851F023586347D
S113FDE006BDFE5CE7E21F10E8E45C4F1F013261D0
S113FDF035860A0A3E20547572626F3920533139B0
S113FE0020426F6F746C6F616465720A3E2000203B
S113FE10646F6E65210A3E20436865636B73756D7C
S113FE2020004641494C00504153530A3E20546F30
S113FE3074616C2062797465732024000A3E204A40
S113FE40535220746F2024000A00F6FF03C50827CC
S113FE50F9F6FF02398D051F988D01398D0B58581D
S113FE60585834048D03EAE0398DDFC1392308C1C1
S113FE70462302C020C007C030393402B6FF0385D0
S113FE801027F9F7FF02358234141F01E680270E8C
S113FE90C10A2606C60D8DE2C60A8DDE20EE359413
S113FEA01E898D051E898D01393404545454548D92
S113FEB00535048D01393404C40FC10A2502CB076A
S109FEC0CB308DB6358441
S113FFF0FD00FD00FD00FD00FD00FD00FD00FD0015
S503001EDE
S9030000FC
